:100000000C9434000C9449000C9449000C94490061
:100010000C9449000C9449000C9449000C9449003C
:100020000C9449000C9449000C9449000C9449002C
:100030000C9449000C9449000C9449000C9449001C
:100040000C9449000C9449000C9449000C9449000C
:100050000C9449000C9449000C9449000C944900FC
:100060000C9449000C94490011241FBECFEFD8E036
:10007000DEBFCDBF11E0A0E0B1E0EEEFF0E002C0E6
:1000800005900D92AC30B107D9F70E9453000C9443
:100090007D000C94000085B983EF91E00197F1F7A2
:1000A00000C000000895CDB7DEB72B970FB6F894C7
:1000B000DEBF0FBECDBF8FEF84B98BE0E0E0F1E093
:1000C000DE01119601900D928A95E1F7CE01099615
:1000D000FE013196219125B9A3EFB1E01197F1F717
:1000E00000C00000E817F907A9F715B8E3ECF9E03C
:0E00F0003197F1F700C00000EBCFF894FFCF7E
:0C00FE0070FC3FFC700070FC3FFC7000C8
:00000001FF
