:100000000C9434000C943E000C943E000C943E0082
:100010000C943E000C943E000C943E000C943E0068
:100020000C943E000C943E000C943E000C943E0058
:100030000C943E000C943E000C943E000C943E0048
:100040000C943E000C943E000C943E000C943E0038
:100050000C943E000C943E000C943E000C943E0028
:100060000C943E000C943E0011241FBECFEFD8E04C
:10007000DEBFCDBF0E9440000C945C000C940000D9
:100080008FEF84B991E080E021E030E0A901082EF3
:1000900001C0440F0A94EAF745B9E3EDF0E3319764
:1000A000F1F700C00000890F873020F48111EECFF6
:0C00B00091E0ECCF9FEFEACFF894FFCF77
:00000001FF
